{
  "contractName": "Certificate",
  "abi": [
    {
      "inputs": [],
      "stateMutability": "nonpayable",
      "type": "constructor"
    },
    {
      "anonymous": false,
      "inputs": [
        {
          "indexed": false,
          "internalType": "string",
          "name": "certId",
          "type": "string"
        },
        {
          "indexed": false,
          "internalType": "string",
          "name": "studentName",
          "type": "string"
        },
        {
          "indexed": false,
          "internalType": "string",
          "name": "courseName",
          "type": "string"
        }
      ],
      "name": "CertificateIssued",
      "type": "event"
    },
    {
      "anonymous": false,
      "inputs": [
        {
          "indexed": false,
          "internalType": "string",
          "name": "certId",
          "type": "string"
        }
      ],
      "name": "CertificateRevoked",
      "type": "event"
    },
    {
      "inputs": [],
      "name": "admin",
      "outputs": [
        {
          "internalType": "address",
          "name": "",
          "type": "address"
        }
      ],
      "stateMutability": "view",
      "type": "function",
      "constant": true
    },
    {
      "inputs": [
        {
          "internalType": "string",
          "name": "certId",
          "type": "string"
        },
        {
          "internalType": "string",
          "name": "studentName",
          "type": "string"
        },
        {
          "internalType": "string",
          "name": "courseName",
          "type": "string"
        },
        {
          "internalType": "string",
          "name": "issueDate",
          "type": "string"
        }
      ],
      "name": "issueCertificate",
      "outputs": [],
      "stateMutability": "nonpayable",
      "type": "function"
    },
    {
      "inputs": [
        {
          "internalType": "string",
          "name": "certId",
          "type": "string"
        }
      ],
      "name": "validateCertificate",
      "outputs": [
        {
          "internalType": "bool",
          "name": "",
          "type": "bool"
        }
      ],
      "stateMutability": "view",
      "type": "function",
      "constant": true
    },
    {
      "inputs": [
        {
          "internalType": "string",
          "name": "certId",
          "type": "string"
        }
      ],
      "name": "revokeCertificate",
      "outputs": [],
      "stateMutability": "nonpayable",
      "type": "function"
    },
    {
      "inputs": [
        {
          "internalType": "string",
          "name": "certId",
          "type": "string"
        }
      ],
      "name": "getCertificate",
      "outputs": [
        {
          "internalType": "string",
          "name": "studentName",
          "type": "string"
        },
        {
          "internalType": "string",
          "name": "courseName",
          "type": "string"
        },
        {
          "internalType": "string",
          "name": "issueDate",
          "type": "string"
        },
        {
          "internalType": "bool",
          "name": "isValid",
          "type": "bool"
        }
      ],
      "stateMutability": "view",
      "type": "function",
      "constant": true
    }
  ],
  "bytecode": "0x608060405234801561001057600080fd5b5033600160006101000a81548173ffffffffffffffffffffffffffffffffffffffff021916908373ffffffffffffffffffffffffffffffffffffffff160217905550611539806100616000396000f3fe608060405234801561001057600080fd5b50600436106100575760003560e01c8063142e15421461005c5780632df68d7214610078578063818a2994146100a8578063ed0f2e75146100c4578063f851a440146100f7575b600080fd5b61007660048036038101906100719190610b8f565b610115565b005b610092600480360381019061008d9190610b8f565b6102ca565b60405161009f9190610bf3565b60405180910390f35b6100c260048036038101906100bd9190610c0e565b610531565b005b6100de60048036038101906100d99190610b8f565b61075c565b6040516100ee9493929190610d64565b60405180910390f35b6100ff610a0f565b60405161010c9190610dff565b60405180910390f35b600160009054906101000a900473ffffffffffffffffffffffffffffffffffffffff1673ffffffffffffffffffffffffffffffffffffffff163373ffffffffffffffffffffffffffffffffffffffff16146101a5576040517f08c379a000000000000000000000000000000000000000000000000000000000815260040161019c90610e8c565b60405180910390fd5b60008151116101e9576040517f08c379a00000000000000000000000000000000000000000000000000000000081526004016101e090610ef8565b60405180910390fd5b6000816040516101f99190610f54565b908152602001604051809103902060030160009054906101000a900460ff16610257576040517f08c379a000000000000000000000000000000000000000000000000000000000815260040161024e90610fb7565b60405180910390fd5b600080826040516102689190610f54565b908152602001604051809103902060030160006101000a81548160ff0219169083151502179055507f266095b5af7e2323760fef151f1d78896740cd2cc1b73a6357ff9e4c3fdae740816040516102bf9190610fd7565b60405180910390a150565b60008082511161030f576040517f08c379a000000000000000000000000000000000000000000000000000000000815260040161030690610ef8565b60405180910390fd5b600080836040516103209190610f54565b908152602001604051809103902060405180608001604052908160008201805461034990611028565b80601f016020809104026020016040519081016040528092919081815260200182805461037590611028565b80156103c25780601f10610397576101008083540402835291602001916103c2565b820191906000526020600020905b8154815290600101906020018083116103a557829003601f168201915b505050505081526020016001820180546103db90611028565b80601f016020809104026020016040519081016040528092919081815260200182805461040790611028565b80156104545780601f1061042957610100808354040283529160200191610454565b820191906000526020600020905b81548152906001019060200180831161043757829003601f168201915b5050505050815260200160028201805461046d90611028565b80601f016020809104026020016040519081016040528092919081815260200182805461049990611028565b80156104e65780601f106104bb576101008083540402835291602001916104e6565b820191906000526020600020905b8154815290600101906020018083116104c957829003601f168201915b505050505081526020016003820160009054906101000a900460ff161515151581525050905060008160000151510361052357600091505061052c565b80606001519150505b919050565b600160009054906101000a900473ffffffffffffffffffffffffffffffffffffffff1673ffffffffffffffffffffffffffffffffffffffff163373ffffffffffffffffffffffffffffffffffffffff16146105c1576040517f08c379a00000000000000000000000000000000000000000000000000000000081526004016105b8906110cb565b60405180910390fd5b6000845111610605576040517f08c379a00000000000000000000000000000000000000000000000000000000081526004016105fc90611137565b60405180910390fd5b600080856040516106169190610f54565b9081526020016040518091039020600001805461063290611028565b905014610674576040517f08c379a000000000000000000000000000000000000000000000000000000000815260040161066b906111a3565b60405180910390fd5b6040518060800160405280848152602001838152602001828152602001600115158152506000856040516106a89190610f54565b908152602001604051809103902060008201518160000190816106cb9190611379565b5060208201518160010190816106e19190611379565b5060408201518160020190816106f79190611379565b5060608201518160030160006101000a81548160ff0219169083151502179055509050507fc9aed1c64acf67836d70d23befa83b398ae1cc3d4dfae56bfe219d38128dd24384848460405161074e9392919061144b565b60405180910390a150505050565b60608060606000808551116107a6576040517f08c379a000000000000000000000000000000000000000000000000000000000815260040161079d90610ef8565b60405180910390fd5b600080866040516107b79190610f54565b90815260200160405180910390206040518060800160405290816000820180546107e090611028565b80601f016020809104026020016040519081016040528092919081815260200182805461080c90611028565b80156108595780601f1061082e57610100808354040283529160200191610859565b820191906000526020600020905b81548152906001019060200180831161083c57829003601f168201915b5050505050815260200160018201805461087290611028565b80601f016020809104026020016040519081016040528092919081815260200182805461089e90611028565b80156108eb5780601f106108c0576101008083540402835291602001916108eb565b820191906000526020600020905b8154815290600101906020018083116108ce57829003601f168201915b5050505050815260200160028201805461090490611028565b80601f016020809104026020016040519081016040528092919081815260200182805461093090611028565b801561097d5780601f106109525761010080835404028352916020019161097d565b820191906000526020600020905b81548152906001019060200180831161096057829003601f168201915b505050505081526020016003820160009054906101000a900460ff16151515158152505090506000816000015151116109eb576040517f08c379a00000000000000000000000000000000000000000000000000000000081526004016109e2906114e3565b60405180910390fd5b80600001518160200151826040015183606001519450945094509450509193509193565b600160009054906101000a900473ffffffffffffffffffffffffffffffffffffffff1681565b6000604051905090565b600080fd5b600080fd5b600080fd5b600080fd5b6000601f19601f8301169050919050565b7f4e487b7100000000000000000000000000000000000000000000000000000000600052604160045260246000fd5b610a9c82610a53565b810181811067ffffffffffffffff82111715610abb57610aba610a64565b5b80604052505050565b6000610ace610a35565b9050610ada8282610a93565b919050565b600067ffffffffffffffff821115610afa57610af9610a64565b5b610b0382610a53565b9050602081019050919050565b82818337600083830152505050565b6000610b32610b2d84610adf565b610ac4565b905082815260208101848484011115610b4e57610b4d610a4e565b5b610b59848285610b10565b509392505050565b600082601f830112610b7657610b75610a49565b5b8135610b86848260208601610b1f565b91505092915050565b600060208284031215610ba557610ba4610a3f565b5b600082013567ffffffffffffffff811115610bc357610bc2610a44565b5b610bcf84828501610b61565b91505092915050565b60008115159050919050565b610bed81610bd8565b82525050565b6000602082019050610c086000830184610be4565b92915050565b60008060008060808587031215610c2857610c27610a3f565b5b600085013567ffffffffffffffff811115610c4657610c45610a44565b5b610c5287828801610b61565b945050602085013567ffffffffffffffff811115610c7357610c72610a44565b5b610c7f87828801610b61565b935050604085013567ffffffffffffffff811115610ca057610c9f610a44565b5b610cac87828801610b61565b925050606085013567ffffffffffffffff811115610ccd57610ccc610a44565b5b610cd987828801610b61565b91505092959194509250565b600081519050919050565b600082825260208201905092915050565b60005b83811015610d1f578082015181840152602081019050610d04565b60008484015250505050565b6000610d3682610ce5565b610d408185610cf0565b9350610d50818560208601610d01565b610d5981610a53565b840191505092915050565b60006080820190508181036000830152610d7e8187610d2b565b90508181036020830152610d928186610d2b565b90508181036040830152610da68185610d2b565b9050610db56060830184610be4565b95945050505050565b600073ffffffffffffffffffffffffffffffffffffffff82169050919050565b6000610de982610dbe565b9050919050565b610df981610dde565b82525050565b6000602082019050610e146000830184610df0565b92915050565b7f4f6e6c792061646d696e2063616e207265766f6b65206365727469666963617460008201527f6573000000000000000000000000000000000000000000000000000000000000602082015250565b6000610e76602283610cf0565b9150610e8182610e1a565b604082019050919050565b60006020820190508181036000830152610ea581610e69565b9050919050565b7f496e76616c696420636572746966696361746520494400000000000000000000600082015250565b6000610ee2601683610cf0565b9150610eed82610eac565b602082019050919050565b60006020820190508181036000830152610f1181610ed5565b9050919050565b600081905092915050565b6000610f2e82610ce5565b610f388185610f18565b9350610f48818560208601610d01565b80840191505092915050565b6000610f608284610f23565b915081905092915050565b7f436572746966696361746520697320616c7265616479207265766f6b65640000600082015250565b6000610fa1601e83610cf0565b9150610fac82610f6b565b602082019050919050565b60006020820190508181036000830152610fd081610f94565b9050919050565b60006020820190508181036000830152610ff18184610d2b565b905092915050565b7f4e487b7100000000000000000000000000000000000000000000000000000000600052602260045260246000fd5b6000600282049050600182168061104057607f821691505b60208210810361105357611052610ff9565b5b50919050565b7f4f6e6c792061646d696e2063616e20697373756520636572746966696361746560008201527f7300000000000000000000000000000000000000000000000000000000000000602082015250565b60006110b5602183610cf0565b91506110c082611059565b604082019050919050565b600060208201905081810360008301526110e4816110a8565b9050919050565b7f43657274696669636174652049442063616e6e6f7420626520656d7074790000600082015250565b6000611121601e83610cf0565b915061112c826110eb565b602082019050919050565b6000602082019050818103600083015261115081611114565b9050919050565b7f436572746966696361746520616c726561647920657869737473000000000000600082015250565b600061118d601a83610cf0565b915061119882611157565b602082019050919050565b600060208201905081810360008301526111bc81611180565b9050919050565b60008190508160005260206000209050919050565b60006020601f8301049050919050565b600082821b905092915050565b6000600883026112257fffffffffffffffffffffffffffffffffffffffffffffffffffffffffffffffff826111e8565b61122f86836111e8565b95508019841693508086168417925050509392505050565b6000819050919050565b6000819050919050565b600061127661127161126c84611247565b611251565b611247565b9050919050565b6000819050919050565b6112908361125b565b6112a461129c8261127d565b8484546111f5565b825550505050565b600090565b6112b96112ac565b6112c4818484611287565b505050565b5b818110156112e8576112dd6000826112b1565b6001810190506112ca565b5050565b601f82111561132d576112fe816111c3565b611307846111d8565b81016020851015611316578190505b61132a611322856111d8565b8301826112c9565b50505b505050565b600082821c905092915050565b600061135060001984600802611332565b1980831691505092915050565b6000611369838361133f565b9150826002028217905092915050565b61138282610ce5565b67ffffffffffffffff81111561139b5761139a610a64565b5b6113a58254611028565b6113b08282856112ec565b600060209050601f8311600181146113e357600084156113d1578287015190505b6113db858261135d565b865550611443565b601f1984166113f1866111c3565b60005b82811015611419578489015182556001820191506020850194506020810190506113f4565b868310156114365784890151611432601f89168261133f565b8355505b6001600288020188555050505b505050505050565b600060608201905081810360008301526114658186610d2b565b905081810360208301526114798185610d2b565b9050818103604083015261148d8184610d2b565b9050949350505050565b7f4365727469666963617465206e6f7420666f756e640000000000000000000000600082015250565b60006114cd601583610cf0565b91506114d882611497565b602082019050919050565b600060208201905081810360008301526114fc816114c0565b905091905056fea2646970667358221220a4d1815520d16e4c5166364c69e1813c2e2e489a9479fcf83fbf734329bfa6bf64736f6c63430008130033",
  "immutableReferences": {},
  "source": "// SPDX-License-Identifier: MIT\r\npragma solidity ^0.8.19;\r\n\r\ncontract Certificate {\r\n    struct Cert {\r\n        string studentName;\r\n        string courseName;\r\n        string issueDate;\r\n        bool isValid;\r\n    }\r\n\r\n    mapping(string => Cert) private certificates; // Made private for security\r\n    address public admin;\r\n\r\n    event CertificateIssued(string certId, string studentName, string courseName);\r\n    event CertificateRevoked(string certId);\r\n\r\n    constructor() {\r\n        admin = msg.sender;\r\n    }\r\n\r\n    function issueCertificate(\r\n        string memory certId,\r\n        string memory studentName,\r\n        string memory courseName,\r\n        string memory issueDate\r\n    ) public {\r\n        require(msg.sender == admin, \"Only admin can issue certificates\");\r\n        require(bytes(certId).length > 0, \"Certificate ID cannot be empty\");\r\n        require(bytes(certificates[certId].studentName).length == 0, \"Certificate already exists\");\r\n\r\n        certificates[certId] = Cert(studentName, courseName, issueDate, true);\r\n        emit CertificateIssued(certId, studentName, courseName);\r\n    }\r\n\r\n    function validateCertificate(string memory certId) public view returns (bool) {\r\n        require(bytes(certId).length > 0, \"Invalid certificate ID\");\r\n        Cert memory cert = certificates[certId];\r\n        \r\n        // Check if the certificate exists\r\n        if (bytes(cert.studentName).length == 0) {\r\n            return false; // Certificate does not exist\r\n        }\r\n\r\n        return cert.isValid;\r\n    }\r\n\r\n    function revokeCertificate(string memory certId) public {\r\n        require(msg.sender == admin, \"Only admin can revoke certificates\");\r\n        require(bytes(certId).length > 0, \"Invalid certificate ID\");\r\n        require(certificates[certId].isValid, \"Certificate is already revoked\");\r\n\r\n        certificates[certId].isValid = false;\r\n        emit CertificateRevoked(certId);\r\n    }\r\n\r\n    function getCertificate(string memory certId) public view returns (\r\n        string memory studentName,\r\n        string memory courseName,\r\n        string memory issueDate,\r\n        bool isValid\r\n    ) {\r\n        require(bytes(certId).length > 0, \"Invalid certificate ID\");\r\n        Cert memory cert = certificates[certId];\r\n\r\n        // Ensure certificate exists before returning data\r\n        require(bytes(cert.studentName).length > 0, \"Certificate not found\");\r\n\r\n        return (cert.studentName, cert.courseName, cert.issueDate, cert.isValid);\r\n    }\r\n}\r\n\r\n",
  "sourcePath": "C:\\xampp\\htdocs\\maj_prj_execution\\contracts\\Certificate.sol",
  "compiler": {
    "name": "solc",
    "version": "0.8.19+commit.7dd6d404.Emscripten.clang"
  },
  "schemaVersion": "3.4.16",
  "updatedAt": "2025-04-02T13:43:33.386Z",
  "networkType": "ethereum",
  "devdoc": {
    "kind": "dev",
    "methods": {},
    "version": 1
  },
  "userdoc": {
    "kind": "user",
    "methods": {},
    "version": 1
  }
}